{
  "_format": "hh-sol-artifact-1",
  "contractName": "NFTMarketplace2",
  "sourceName": "contracts/NFTMarketplace2.sol",
  "abi": [
    {
      "inputs": [],
      "stateMutability": "nonpayable",
      "type": "constructor"
    },
    {
      "anonymous": false,
      "inputs": [
        {
          "indexed": true,
          "internalType": "address",
          "name": "owner",
          "type": "address"
        },
        {
          "indexed": true,
          "internalType": "address",
          "name": "approved",
          "type": "address"
        },
        {
          "indexed": true,
          "internalType": "uint256",
          "name": "tokenId",
          "type": "uint256"
        }
      ],
      "name": "Approval",
      "type": "event"
    },
    {
      "anonymous": false,
      "inputs": [
        {
          "indexed": true,
          "internalType": "address",
          "name": "owner",
          "type": "address"
        },
        {
          "indexed": true,
          "internalType": "address",
          "name": "operator",
          "type": "address"
        },
        {
          "indexed": false,
          "internalType": "bool",
          "name": "approved",
          "type": "bool"
        }
      ],
      "name": "ApprovalForAll",
      "type": "event"
    },
    {
      "anonymous": false,
      "inputs": [
        {
          "indexed": false,
          "internalType": "uint256",
          "name": "_fromTokenId",
          "type": "uint256"
        },
        {
          "indexed": false,
          "internalType": "uint256",
          "name": "_toTokenId",
          "type": "uint256"
        }
      ],
      "name": "BatchMetadataUpdate",
      "type": "event"
    },
    {
      "anonymous": false,
      "inputs": [
        {
          "indexed": true,
          "internalType": "uint256",
          "name": "tokenId",
          "type": "uint256"
        },
        {
          "indexed": false,
          "internalType": "address",
          "name": "seller",
          "type": "address"
        },
        {
          "indexed": false,
          "internalType": "address",
          "name": "owner",
          "type": "address"
        },
        {
          "indexed": false,
          "internalType": "uint256",
          "name": "price",
          "type": "uint256"
        },
        {
          "indexed": false,
          "internalType": "uint256",
          "name": "royaltyPercentage",
          "type": "uint256"
        },
        {
          "indexed": false,
          "internalType": "bool",
          "name": "sold",
          "type": "bool"
        }
      ],
      "name": "MarketItemCreated",
      "type": "event"
    },
    {
      "anonymous": false,
      "inputs": [
        {
          "indexed": false,
          "internalType": "uint256",
          "name": "_tokenId",
          "type": "uint256"
        }
      ],
      "name": "MetadataUpdate",
      "type": "event"
    },
    {
      "anonymous": false,
      "inputs": [
        {
          "indexed": true,
          "internalType": "address",
          "name": "from",
          "type": "address"
        },
        {
          "indexed": true,
          "internalType": "address",
          "name": "to",
          "type": "address"
        },
        {
          "indexed": true,
          "internalType": "uint256",
          "name": "tokenId",
          "type": "uint256"
        }
      ],
      "name": "Transfer",
      "type": "event"
    },
    {
      "inputs": [
        {
          "internalType": "address",
          "name": "to",
          "type": "address"
        },
        {
          "internalType": "uint256",
          "name": "tokenId",
          "type": "uint256"
        }
      ],
      "name": "approve",
      "outputs": [],
      "stateMutability": "nonpayable",
      "type": "function"
    },
    {
      "inputs": [
        {
          "internalType": "address",
          "name": "owner",
          "type": "address"
        }
      ],
      "name": "balanceOf",
      "outputs": [
        {
          "internalType": "uint256",
          "name": "",
          "type": "uint256"
        }
      ],
      "stateMutability": "view",
      "type": "function"
    },
    {
      "inputs": [
        {
          "internalType": "uint256",
          "name": "tokenId",
          "type": "uint256"
        }
      ],
      "name": "createMarketSale",
      "outputs": [],
      "stateMutability": "payable",
      "type": "function"
    },
    {
      "inputs": [
        {
          "internalType": "string",
          "name": "tokenURI",
          "type": "string"
        },
        {
          "internalType": "uint256",
          "name": "price",
          "type": "uint256"
        },
        {
          "internalType": "uint256",
          "name": "_royaltyPercentage",
          "type": "uint256"
        }
      ],
      "name": "createToken",
      "outputs": [
        {
          "internalType": "uint256",
          "name": "",
          "type": "uint256"
        }
      ],
      "stateMutability": "payable",
      "type": "function"
    },
    {
      "inputs": [],
      "name": "fetchItemsListed",
      "outputs": [
        {
          "components": [
            {
              "internalType": "uint256",
              "name": "tokenId",
              "type": "uint256"
            },
            {
              "internalType": "address payable",
              "name": "seller",
              "type": "address"
            },
            {
              "internalType": "address payable",
              "name": "owner",
              "type": "address"
            },
            {
              "internalType": "uint256",
              "name": "price",
              "type": "uint256"
            },
            {
              "internalType": "uint256",
              "name": "royaltyPercentage",
              "type": "uint256"
            },
            {
              "internalType": "bool",
              "name": "sold",
              "type": "bool"
            }
          ],
          "internalType": "struct NFTMarketplace2.MarketItem[]",
          "name": "",
          "type": "tuple[]"
        }
      ],
      "stateMutability": "view",
      "type": "function"
    },
    {
      "inputs": [],
      "name": "fetchMarketItems",
      "outputs": [
        {
          "components": [
            {
              "internalType": "uint256",
              "name": "tokenId",
              "type": "uint256"
            },
            {
              "internalType": "address payable",
              "name": "seller",
              "type": "address"
            },
            {
              "internalType": "address payable",
              "name": "owner",
              "type": "address"
            },
            {
              "internalType": "uint256",
              "name": "price",
              "type": "uint256"
            },
            {
              "internalType": "uint256",
              "name": "royaltyPercentage",
              "type": "uint256"
            },
            {
              "internalType": "bool",
              "name": "sold",
              "type": "bool"
            }
          ],
          "internalType": "struct NFTMarketplace2.MarketItem[]",
          "name": "",
          "type": "tuple[]"
        }
      ],
      "stateMutability": "view",
      "type": "function"
    },
    {
      "inputs": [],
      "name": "fetchMyNFTs",
      "outputs": [
        {
          "components": [
            {
              "internalType": "uint256",
              "name": "tokenId",
              "type": "uint256"
            },
            {
              "internalType": "address payable",
              "name": "seller",
              "type": "address"
            },
            {
              "internalType": "address payable",
              "name": "owner",
              "type": "address"
            },
            {
              "internalType": "uint256",
              "name": "price",
              "type": "uint256"
            },
            {
              "internalType": "uint256",
              "name": "royaltyPercentage",
              "type": "uint256"
            },
            {
              "internalType": "bool",
              "name": "sold",
              "type": "bool"
            }
          ],
          "internalType": "struct NFTMarketplace2.MarketItem[]",
          "name": "",
          "type": "tuple[]"
        }
      ],
      "stateMutability": "view",
      "type": "function"
    },
    {
      "inputs": [
        {
          "internalType": "uint256",
          "name": "tokenId",
          "type": "uint256"
        }
      ],
      "name": "getApproved",
      "outputs": [
        {
          "internalType": "address",
          "name": "",
          "type": "address"
        }
      ],
      "stateMutability": "view",
      "type": "function"
    },
    {
      "inputs": [],
      "name": "getListingPrice",
      "outputs": [
        {
          "internalType": "uint256",
          "name": "",
          "type": "uint256"
        }
      ],
      "stateMutability": "view",
      "type": "function"
    },
    {
      "inputs": [
        {
          "internalType": "address",
          "name": "owner",
          "type": "address"
        },
        {
          "internalType": "address",
          "name": "operator",
          "type": "address"
        }
      ],
      "name": "isApprovedForAll",
      "outputs": [
        {
          "internalType": "bool",
          "name": "",
          "type": "bool"
        }
      ],
      "stateMutability": "view",
      "type": "function"
    },
    {
      "inputs": [],
      "name": "name",
      "outputs": [
        {
          "internalType": "string",
          "name": "",
          "type": "string"
        }
      ],
      "stateMutability": "view",
      "type": "function"
    },
    {
      "inputs": [
        {
          "internalType": "uint256",
          "name": "tokenId",
          "type": "uint256"
        }
      ],
      "name": "ownerOf",
      "outputs": [
        {
          "internalType": "address",
          "name": "",
          "type": "address"
        }
      ],
      "stateMutability": "view",
      "type": "function"
    },
    {
      "inputs": [
        {
          "internalType": "uint256",
          "name": "tokenId",
          "type": "uint256"
        },
        {
          "internalType": "uint256",
          "name": "price",
          "type": "uint256"
        }
      ],
      "name": "resellToken",
      "outputs": [],
      "stateMutability": "payable",
      "type": "function"
    },
    {
      "inputs": [
        {
          "internalType": "address",
          "name": "from",
          "type": "address"
        },
        {
          "internalType": "address",
          "name": "to",
          "type": "address"
        },
        {
          "internalType": "uint256",
          "name": "tokenId",
          "type": "uint256"
        }
      ],
      "name": "safeTransferFrom",
      "outputs": [],
      "stateMutability": "nonpayable",
      "type": "function"
    },
    {
      "inputs": [
        {
          "internalType": "address",
          "name": "from",
          "type": "address"
        },
        {
          "internalType": "address",
          "name": "to",
          "type": "address"
        },
        {
          "internalType": "uint256",
          "name": "tokenId",
          "type": "uint256"
        },
        {
          "internalType": "bytes",
          "name": "data",
          "type": "bytes"
        }
      ],
      "name": "safeTransferFrom",
      "outputs": [],
      "stateMutability": "nonpayable",
      "type": "function"
    },
    {
      "inputs": [
        {
          "internalType": "address",
          "name": "operator",
          "type": "address"
        },
        {
          "internalType": "bool",
          "name": "approved",
          "type": "bool"
        }
      ],
      "name": "setApprovalForAll",
      "outputs": [],
      "stateMutability": "nonpayable",
      "type": "function"
    },
    {
      "inputs": [
        {
          "internalType": "bytes4",
          "name": "interfaceId",
          "type": "bytes4"
        }
      ],
      "name": "supportsInterface",
      "outputs": [
        {
          "internalType": "bool",
          "name": "",
          "type": "bool"
        }
      ],
      "stateMutability": "view",
      "type": "function"
    },
    {
      "inputs": [],
      "name": "symbol",
      "outputs": [
        {
          "internalType": "string",
          "name": "",
          "type": "string"
        }
      ],
      "stateMutability": "view",
      "type": "function"
    },
    {
      "inputs": [
        {
          "internalType": "uint256",
          "name": "tokenId",
          "type": "uint256"
        }
      ],
      "name": "tokenURI",
      "outputs": [
        {
          "internalType": "string",
          "name": "",
          "type": "string"
        }
      ],
      "stateMutability": "view",
      "type": "function"
    },
    {
      "inputs": [
        {
          "internalType": "address",
          "name": "from",
          "type": "address"
        },
        {
          "internalType": "address",
          "name": "to",
          "type": "address"
        },
        {
          "internalType": "uint256",
          "name": "tokenId",
          "type": "uint256"
        }
      ],
      "name": "transferFrom",
      "outputs": [],
      "stateMutability": "nonpayable",
      "type": "function"
    },
    {
      "inputs": [
        {
          "internalType": "uint256",
          "name": "_listingPrice",
          "type": "uint256"
        }
      ],
      "name": "updateListingPrice",
      "outputs": [],
      "stateMutability": "payable",
      "type": "function"
    }
  ],
  "bytecode": "0x60806040526658d15e176280006009553480156200001c57600080fd5b506040518060400160405280601081526020017f4d657461766572736520546f6b656e73000000000000000000000000000000008152506040518060400160405280600481526020017f4d455454000000000000000000000000000000000000000000000000000000008152508160009080519060200190620000a192919062000104565b508060019080519060200190620000ba92919062000104565b50505033600a60006101000a81548173ffffffffffffffffffffffffffffffffffffffff021916908373ffffffffffffffffffffffffffffffffffffffff16021790555062000219565b8280546200011290620001b4565b90600052602060002090601f01602090048101928262000136576000855562000182565b82601f106200015157805160ff191683800117855562000182565b8280016001018555821562000182579182015b828111156200018157825182559160200191906001019062000164565b5b50905062000191919062000195565b5090565b5b80821115620001b057600081600090555060010162000196565b5090565b60006002820490506001821680620001cd57607f821691505b60208210811415620001e457620001e3620001ea565b5b50919050565b7f4e487b7100000000000000000000000000000000000000000000000000000000600052602260045260246000fd5b6144f580620002296000396000f3fe60806040526004361061012a5760003560e01c80636352211e116100ab578063b88d4fde1161006f578063b88d4fde146103e5578063be9af5361461040e578063bec2a7c51461042a578063c87b56dd1461045a578063e219fc7514610497578063e985e9c5146104b35761012a565b80636352211e146102fb57806370a082311461033857806395d89b4114610375578063a22cb465146103a0578063ae677aa3146103c95761012a565b806312e85585116100f257806312e8558514610228578063202e37401461025357806323b872dd1461027e57806342842e0e146102a757806345f8fa80146102d05761012a565b806301ffc9a71461012f57806306fdde031461016c578063081812fc14610197578063095ea7b3146101d45780630f08efe0146101fd575b600080fd5b34801561013b57600080fd5b50610156600480360381019061015191906131b4565b6104f0565b6040516101639190613859565b60405180910390f35b34801561017857600080fd5b50610181610551565b60405161018e9190613874565b60405180910390f35b3480156101a357600080fd5b506101be60048036038101906101b9919061326d565b6105e3565b6040516101cb919061377d565b60405180910390f35b3480156101e057600080fd5b506101fb60048036038101906101f69190613178565b610629565b005b34801561020957600080fd5b50610212610741565b60405161021f9190613837565b60405180910390f35b34801561023457600080fd5b5061023d610a00565b60405161024a9190613af6565b60405180910390f35b34801561025f57600080fd5b50610268610a0a565b6040516102759190613837565b60405180910390f35b34801561028a57600080fd5b506102a560048036038101906102a09190613072565b610d4e565b005b3480156102b357600080fd5b506102ce60048036038101906102c99190613072565b610dae565b005b3480156102dc57600080fd5b506102e5610dce565b6040516102f29190613837565b60405180910390f35b34801561030757600080fd5b50610322600480360381019061031d919061326d565b611112565b60405161032f919061377d565b60405180910390f35b34801561034457600080fd5b5061035f600480360381019061035a919061300d565b611199565b60405161036c9190613af6565b60405180910390f35b34801561038157600080fd5b5061038a611251565b6040516103979190613874565b60405180910390f35b3480156103ac57600080fd5b506103c760048036038101906103c2919061313c565b6112e3565b005b6103e360048036038101906103de919061326d565b6112f9565b005b3480156103f157600080fd5b5061040c600480360381019061040791906130c1565b611393565b005b6104286004803603810190610423919061326d565b6113f5565b005b610444600480360381019061043f9190613206565b61167c565b6040516104519190613af6565b60405180910390f35b34801561046657600080fd5b50610481600480360381019061047c919061326d565b6116c0565b60405161048e9190613874565b60405180910390f35b6104b160048036038101906104ac9190613296565b6117d3565b005b3480156104bf57600080fd5b506104da60048036038101906104d59190613036565b6119c8565b6040516104e79190613859565b60405180910390f35b6000634906490660e01b7bffffffffffffffffffffffffffffffffffffffffffffffffffffffff1916827bffffffffffffffffffffffffffffffffffffffffffffffffffffffff1916148061054a575061054982611a5c565b5b9050919050565b60606000805461056090613df1565b80601f016020809104026020016040519081016040528092919081815260200182805461058c90613df1565b80156105d95780601f106105ae576101008083540402835291602001916105d9565b820191906000526020600020905b8154815290600101906020018083116105bc57829003601f168201915b5050505050905090565b60006105ee82611b3e565b6004600083815260200190815260200160002060009054906101000a900473ffffffffffffffffffffffffffffffffffffffff169050919050565b600061063482611112565b90508073ffffffffffffffffffffffffffffffffffffffff168373ffffffffffffffffffffffffffffffffffffffff1614156106a5576040517f08c379a000000000000000000000000000000000000000000000000000000000815260040161069c90613a56565b60405180910390fd5b8073ffffffffffffffffffffffffffffffffffffffff166106c4611b89565b73ffffffffffffffffffffffffffffffffffffffff1614806106f357506106f2816106ed611b89565b6119c8565b5b610732576040517f08c379a000000000000000000000000000000000000000000000000000000000815260040161072990613a96565b60405180910390fd5b61073c8383611b91565b505050565b6060600061074f6007611c4a565b9050600061075d6008611c4a565b6107676007611c4a565b6107719190613cf5565b90506000808267ffffffffffffffff8111156107b6577f4e487b7100000000000000000000000000000000000000000000000000000000600052604160045260246000fd5b6040519080825280602002602001820160405280156107ef57816020015b6107dc612dcd565b8152602001906001900390816107d45790505b50905060005b848110156109f5573073ffffffffffffffffffffffffffffffffffffffff16600b60006001846108259190613c14565b815260200190815260200160002060020160009054906101000a900473ffffffffffffffffffffffffffffffffffffffff1673ffffffffffffffffffffffffffffffffffffffff1614156109e25760006001826108829190613c14565b90506000600b60008381526020019081526020016000209050806040518060c0016040529081600082015481526020016001820160009054906101000a900473ffffffffffffffffffffffffffffffffffffffff1673ffffffffffffffffffffffffffffffffffffffff1673ffffffffffffffffffffffffffffffffffffffff1681526020016002820160009054906101000a900473ffffffffffffffffffffffffffffffffffffffff1673ffffffffffffffffffffffffffffffffffffffff1673ffffffffffffffffffffffffffffffffffffffff16815260200160038201548152602001600482015481526020016005820160009054906101000a900460ff1615151515815250508486815181106109c5577f4e487b7100000000000000000000000000000000000000000000000000000000600052603260045260246000fd5b60200260200101819052506001856109dd9190613c14565b945050505b80806109ed90613e54565b9150506107f5565b508094505050505090565b6000600954905090565b60606000610a186007611c4a565b905060008060005b83811015610ac1573373ffffffffffffffffffffffffffffffffffffffff16600b6000600184610a509190613c14565b815260200190815260200160002060020160009054906101000a900473ffffffffffffffffffffffffffffffffffffffff1673ffffffffffffffffffffffffffffffffffffffff161415610aae57600183610aab9190613c14565b92505b8080610ab990613e54565b915050610a20565b5060008267ffffffffffffffff811115610b04577f4e487b7100000000000000000000000000000000000000000000000000000000600052604160045260246000fd5b604051908082528060200260200182016040528015610b3d57816020015b610b2a612dcd565b815260200190600190039081610b225790505b50905060005b84811015610d43573373ffffffffffffffffffffffffffffffffffffffff16600b6000600184610b739190613c14565b815260200190815260200160002060020160009054906101000a900473ffffffffffffffffffffffffffffffffffffffff1673ffffffffffffffffffffffffffffffffffffffff161415610d30576000600182610bd09190613c14565b90506000600b60008381526020019081526020016000209050806040518060c0016040529081600082015481526020016001820160009054906101000a900473ffffffffffffffffffffffffffffffffffffffff1673ffffffffffffffffffffffffffffffffffffffff1673ffffffffffffffffffffffffffffffffffffffff1681526020016002820160009054906101000a900473ffffffffffffffffffffffffffffffffffffffff1673ffffffffffffffffffffffffffffffffffffffff1673ffffffffffffffffffffffffffffffffffffffff16815260200160038201548152602001600482015481526020016005820160009054906101000a900460ff161515151581525050848681518110610d13577f4e487b7100000000000000000000000000000000000000000000000000000000600052603260045260246000fd5b6020026020010181905250600185610d2b9190613c14565b945050505b8080610d3b90613e54565b915050610b43565b508094505050505090565b610d5f610d59611b89565b82611c58565b610d9e576040517f08c379a0000000000000000000000000000000000000000000000000000000008152600401610d9590613896565b60405180910390fd5b610da9838383611ced565b505050565b610dc983838360405180602001604052806000815250611393565b505050565b60606000610ddc6007611c4a565b905060008060005b83811015610e85573373ffffffffffffffffffffffffffffffffffffffff16600b6000600184610e149190613c14565b815260200190815260200160002060010160009054906101000a900473ffffffffffffffffffffffffffffffffffffffff1673ffffffffffffffffffffffffffffffffffffffff161415610e7257600183610e6f9190613c14565b92505b8080610e7d90613e54565b915050610de4565b5060008267ffffffffffffffff811115610ec8577f4e487b7100000000000000000000000000000000000000000000000000000000600052604160045260246000fd5b604051908082528060200260200182016040528015610f0157816020015b610eee612dcd565b815260200190600190039081610ee65790505b50905060005b84811015611107573373ffffffffffffffffffffffffffffffffffffffff16600b6000600184610f379190613c14565b815260200190815260200160002060010160009054906101000a900473ffffffffffffffffffffffffffffffffffffffff1673ffffffffffffffffffffffffffffffffffffffff1614156110f4576000600182610f949190613c14565b90506000600b60008381526020019081526020016000209050806040518060c0016040529081600082015481526020016001820160009054906101000a900473ffffffffffffffffffffffffffffffffffffffff1673ffffffffffffffffffffffffffffffffffffffff1673ffffffffffffffffffffffffffffffffffffffff1681526020016002820160009054906101000a900473ffffffffffffffffffffffffffffffffffffffff1673ffffffffffffffffffffffffffffffffffffffff1673ffffffffffffffffffffffffffffffffffffffff16815260200160038201548152602001600482015481526020016005820160009054906101000a900460ff1615151515815250508486815181106110d7577f4e487b7100000000000000000000000000000000000000000000000000000000600052603260045260246000fd5b60200260200101819052506001856110ef9190613c14565b945050505b80806110ff90613e54565b915050610f07565b508094505050505090565b60008061111e83611fe7565b9050600073ffffffffffffffffffffffffffffffffffffffff168173ffffffffffffffffffffffffffffffffffffffff161415611190576040517f08c379a000000000000000000000000000000000000000000000000000000000815260040161118790613a36565b60405180910390fd5b80915050919050565b60008073ffffffffffffffffffffffffffffffffffffffff168273ffffffffffffffffffffffffffffffffffffffff16141561120a576040517f08c379a000000000000000000000000000000000000000000000000000000000815260040161120190613996565b60405180910390fd5b600360008373ffffffffffffffffffffffffffffffffffffffff1673ffffffffffffffffffffffffffffffffffffffff168152602001908152602001600020549050919050565b60606001805461126090613df1565b80601f016020809104026020016040519081016040528092919081815260200182805461128c90613df1565b80156112d95780601f106112ae576101008083540402835291602001916112d9565b820191906000526020600020905b8154815290600101906020018083116112bc57829003601f168201915b5050505050905090565b6112f56112ee611b89565b8383612024565b5050565b3373ffffffffffffffffffffffffffffffffffffffff16600a60009054906101000a900473ffffffffffffffffffffffffffffffffffffffff1673ffffffffffffffffffffffffffffffffffffffff1614611389576040517f08c379a000000000000000000000000000000000000000000000000000000000815260040161138090613ab6565b60405180910390fd5b8060098190555050565b6113a461139e611b89565b83611c58565b6113e3576040517f08c379a00000000000000000000000000000000000000000000000000000000081526004016113da90613896565b60405180910390fd5b6113ef84848484612191565b50505050565b6000600b6000838152602001908152602001600020600301549050803414611452576040517f08c379a0000000000000000000000000000000000000000000000000000000008152600401611449906139d6565b60405180910390fd5b60006064600b600085815260200190815260200160002060040154836114789190613c9b565b6114829190613c6a565b9050600081836114929190613cf5565b905033600b600086815260200190815260200160002060020160006101000a81548173ffffffffffffffffffffffffffffffffffffffff021916908373ffffffffffffffffffffffffffffffffffffffff1602179055506001600b600086815260200190815260200160002060050160006101000a81548160ff02191690831515021790555061152260086121ed565b61152d303386611ced565b600a60009054906101000a900473ffffffffffffffffffffffffffffffffffffffff1673ffffffffffffffffffffffffffffffffffffffff166108fc836009546115779190613c14565b9081150290604051600060405180830381858888f193505050501580156115a2573d6000803e3d6000fd5b50600b600085815260200190815260200160002060010160009054906101000a900473ffffffffffffffffffffffffffffffffffffffff1673ffffffffffffffffffffffffffffffffffffffff166108fc829081150290604051600060405180830381858888f1935050505015801561161f573d6000803e3d6000fd5b506000600b600086815260200190815260200160002060010160006101000a81548173ffffffffffffffffffffffffffffffffffffffff021916908373ffffffffffffffffffffffffffffffffffffffff16021790555050505050565b600061168860076121ed565b60006116946007611c4a565b90506116a03382612203565b6116aa8186612421565b6116b58185856124cc565b809150509392505050565b60606116cb82611b3e565b60006006600084815260200190815260200160002080546116eb90613df1565b80601f016020809104026020016040519081016040528092919081815260200182805461171790613df1565b80156117645780601f1061173957610100808354040283529160200191611764565b820191906000526020600020905b81548152906001019060200180831161174757829003601f168201915b505050505090506000611775612726565b905060008151141561178b5781925050506117ce565b6000825111156117c05780826040516020016117a8929190613759565b604051602081830303815290604052925050506117ce565b6117c98461273d565b925050505b919050565b3373ffffffffffffffffffffffffffffffffffffffff16600b600084815260200190815260200160002060020160009054906101000a900473ffffffffffffffffffffffffffffffffffffffff1673ffffffffffffffffffffffffffffffffffffffff1614611877576040517f08c379a000000000000000000000000000000000000000000000000000000000815260040161186e90613a16565b60405180910390fd5b60095434146118bb576040517f08c379a00000000000000000000000000000000000000000000000000000000081526004016118b290613a76565b60405180910390fd5b6000600b600084815260200190815260200160002060050160006101000a81548160ff02191690831515021790555080600b60008481526020019081526020016000206003018190555033600b600084815260200190815260200160002060010160006101000a81548173ffffffffffffffffffffffffffffffffffffffff021916908373ffffffffffffffffffffffffffffffffffffffff16021790555030600b600084815260200190815260200160002060020160006101000a81548173ffffffffffffffffffffffffffffffffffffffff021916908373ffffffffffffffffffffffffffffffffffffffff1602179055506119b960086127a5565b6119c4333084611ced565b5050565b6000600560008473ffffffffffffffffffffffffffffffffffffffff1673ffffffffffffffffffffffffffffffffffffffff16815260200190815260200160002060008373ffffffffffffffffffffffffffffffffffffffff1673ffffffffffffffffffffffffffffffffffffffff16815260200190815260200160002060009054906101000a900460ff16905092915050565b60007f80ac58cd000000000000000000000000000000000000000000000000000000007bffffffffffffffffffffffffffffffffffffffffffffffffffffffff1916827bffffffffffffffffffffffffffffffffffffffffffffffffffffffff19161480611b2757507f5b5e139f000000000000000000000000000000000000000000000000000000007bffffffffffffffffffffffffffffffffffffffffffffffffffffffff1916827bffffffffffffffffffffffffffffffffffffffffffffffffffffffff1916145b80611b375750611b3682612801565b5b9050919050565b611b478161286b565b611b86576040517f08c379a0000000000000000000000000000000000000000000000000000000008152600401611b7d90613a36565b60405180910390fd5b50565b600033905090565b816004600083815260200190815260200160002060006101000a81548173ffffffffffffffffffffffffffffffffffffffff021916908373ffffffffffffffffffffffffffffffffffffffff160217905550808273ffffffffffffffffffffffffffffffffffffffff16611c0483611112565b73ffffffffffffffffffffffffffffffffffffffff167f8c5be1e5ebec7d5bd14f71427d1e84f3dd0314c0f7b2291e5b200ac8c7c3b92560405160405180910390a45050565b600081600001549050919050565b600080611c6483611112565b90508073ffffffffffffffffffffffffffffffffffffffff168473ffffffffffffffffffffffffffffffffffffffff161480611ca65750611ca581856119c8565b5b80611ce457508373ffffffffffffffffffffffffffffffffffffffff16611ccc846105e3565b73ffffffffffffffffffffffffffffffffffffffff16145b91505092915050565b8273ffffffffffffffffffffffffffffffffffffffff16611d0d82611112565b73ffffffffffffffffffffffffffffffffffffffff1614611d63576040517f08c379a0000000000000000000000000000000000000000000000000000000008152600401611d5a906138f6565b60405180910390fd5b600073ffffffffffffffffffffffffffffffffffffffff168273ffffffffffffffffffffffffffffffffffffffff161415611dd3576040517f08c379a0000000000000000000000000000000000000000000000000000000008152600401611dca90613936565b60405180910390fd5b611de083838360016128ac565b8273ffffffffffffffffffffffffffffffffffffffff16611e0082611112565b73ffffffffffffffffffffffffffffffffffffffff1614611e56576040517f08c379a0000000000000000000000000000000000000000000000000000000008152600401611e4d906138f6565b60405180910390fd5b6004600082815260200190815260200160002060006101000a81549073ffffffffffffffffffffffffffffffffffffffff02191690556001600360008573ffffffffffffffffffffffffffffffffffffffff1673ffffffffffffffffffffffffffffffffffffffff168152602001908152602001600020600082825403925050819055506001600360008473ffffffffffffffffffffffffffffffffffffffff1673ffffffffffffffffffffffffffffffffffffffff16815260200190815260200160002060008282540192505081905550816002600083815260200190815260200160002060006101000a81548173ffffffffffffffffffffffffffffffffffffffff021916908373ffffffffffffffffffffffffffffffffffffffff160217905550808273ffffffffffffffffffffffffffffffffffffffff168473ffffffffffffffffffffffffffffffffffffffff167fddf252ad1be2c89b69c2b068fc378daa952ba7f163c4a11628f55a4df523b3ef60405160405180910390a4611fe283838360016128b2565b505050565b60006002600083815260200190815260200160002060009054906101000a900473ffffffffffffffffffffffffffffffffffffffff169050919050565b8173ffffffffffffffffffffffffffffffffffffffff168373ffffffffffffffffffffffffffffffffffffffff161415612093576040517f08c379a000000000000000000000000000000000000000000000000000000000815260040161208a90613976565b60405180910390fd5b80600560008573ffffffffffffffffffffffffffffffffffffffff1673ffffffffffffffffffffffffffffffffffffffff16815260200190815260200160002060008473ffffffffffffffffffffffffffffffffffffffff1673ffffffffffffffffffffffffffffffffffffffff16815260200190815260200160002060006101000a81548160ff0219169083151502179055508173ffffffffffffffffffffffffffffffffffffffff168373ffffffffffffffffffffffffffffffffffffffff167f17307eab39ab6107e8899845ad3d59bd9653f200f220920489ca2b5937696c31836040516121849190613859565b60405180910390a3505050565b61219c848484611ced565b6121a8848484846128b8565b6121e7576040517f08c379a00000000000000000000000000000000000000000000000000000000081526004016121de906138d6565b60405180910390fd5b50505050565b6001816000016000828254019250508190555050565b600073ffffffffffffffffffffffffffffffffffffffff168273ffffffffffffffffffffffffffffffffffffffff161415612273576040517f08c379a000000000000000000000000000000000000000000000000000000000815260040161226a906139f6565b60405180910390fd5b61227c8161286b565b156122bc576040517f08c379a00000000000000000000000000000000000000000000000000000000081526004016122b390613916565b60405180910390fd5b6122ca6000838360016128ac565b6122d38161286b565b15612313576040517f08c379a000000000000000000000000000000000000000000000000000000000815260040161230a90613916565b60405180910390fd5b6001600360008473ffffffffffffffffffffffffffffffffffffffff1673ffffffffffffffffffffffffffffffffffffffff16815260200190815260200160002060008282540192505081905550816002600083815260200190815260200160002060006101000a81548173ffffffffffffffffffffffffffffffffffffffff021916908373ffffffffffffffffffffffffffffffffffffffff160217905550808273ffffffffffffffffffffffffffffffffffffffff16600073ffffffffffffffffffffffffffffffffffffffff167fddf252ad1be2c89b69c2b068fc378daa952ba7f163c4a11628f55a4df523b3ef60405160405180910390a461241d6000838360016128b2565b5050565b61242a8261286b565b612469576040517f08c379a0000000000000000000000000000000000000000000000000000000008152600401612460906139b6565b60405180910390fd5b80600660008481526020019081526020016000209080519060200190612490929190612e31565b507ff8e1a15aba9398e019f0b49df1a4fde98ee17ae345cb5f6b5e2c27f5033e8ce7826040516124c09190613af6565b60405180910390a15050565b6000821161250f576040517f08c379a000000000000000000000000000000000000000000000000000000000815260040161250690613ad6565b60405180910390fd5b6064811115612553576040517f08c379a000000000000000000000000000000000000000000000000000000000815260040161254a90613956565b60405180910390fd5b6009543414612597576040517f08c379a000000000000000000000000000000000000000000000000000000000815260040161258e90613a76565b60405180910390fd5b6040518060c001604052808481526020013373ffffffffffffffffffffffffffffffffffffffff1681526020013073ffffffffffffffffffffffffffffffffffffffff16815260200183815260200182815260200160001515815250600b60008581526020019081526020016000206000820151816000015560208201518160010160006101000a81548173ffffffffffffffffffffffffffffffffffffffff021916908373ffffffffffffffffffffffffffffffffffffffff16021790555060408201518160020160006101000a81548173ffffffffffffffffffffffffffffffffffffffff021916908373ffffffffffffffffffffffffffffffffffffffff160217905550606082015181600301556080820151816004015560a08201518160050160006101000a81548160ff0219169083151502179055509050506126e0333085611ced565b827f04725f44278a0475942ea64180dcfe5b01f4834fa5ec4ef7249caa03eadb65b43330858560006040516127199594939291906137e4565b60405180910390a2505050565b606060405180602001604052806000815250905090565b606061274882611b3e565b6000612752612726565b90506000815111612772576040518060200160405280600081525061279d565b8061277c84612a4f565b60405160200161278d929190613759565b6040516020818303038152906040525b915050919050565b600081600001549050600081116127f1576040517f08c379a00000000000000000000000000000000000000000000000000000000081526004016127e8906138b6565b60405180910390fd5b6001810382600001819055505050565b60007f01ffc9a7000000000000000000000000000000000000000000000000000000007bffffffffffffffffffffffffffffffffffffffffffffffffffffffff1916827bffffffffffffffffffffffffffffffffffffffffffffffffffffffff1916149050919050565b60008073ffffffffffffffffffffffffffffffffffffffff1661288d83611fe7565b73ffffffffffffffffffffffffffffffffffffffff1614159050919050565b50505050565b50505050565b60006128d98473ffffffffffffffffffffffffffffffffffffffff16612b73565b15612a42578373ffffffffffffffffffffffffffffffffffffffff1663150b7a02612902611b89565b8786866040518563ffffffff1660e01b81526004016129249493929190613798565b602060405180830381600087803b15801561293e57600080fd5b505af192505050801561296f57506040513d601f19601f8201168201806040525081019061296c91906131dd565b60015b6129f2573d806000811461299f576040519150601f19603f3d011682016040523d82523d6000602084013e6129a4565b606091505b506000815114156129ea576040517f08c379a00000000000000000000000000000000000000000000000000000000081526004016129e1906138d6565b60405180910390fd5b805181602001fd5b63150b7a0260e01b7bffffffffffffffffffffffffffffffffffffffffffffffffffffffff1916817bffffffffffffffffffffffffffffffffffffffffffffffffffffffff191614915050612a47565b600190505b949350505050565b606060006001612a5e84612b96565b01905060008167ffffffffffffffff811115612aa3577f4e487b7100000000000000000000000000000000000000000000000000000000600052604160045260246000fd5b6040519080825280601f01601f191660200182016040528015612ad55781602001600182028036833780820191505090505b509050600082602001820190505b600115612b68578080600190039150507f3031323334353637383961626364656600000000000000000000000000000000600a86061a8153600a8581612b52577f4e487b7100000000000000000000000000000000000000000000000000000000600052601260045260246000fd5b0494506000851415612b6357612b68565b612ae3565b819350505050919050565b6000808273ffffffffffffffffffffffffffffffffffffffff163b119050919050565b600080600090507a184f03e93ff9f4daa797ed6e38ed64bf6a1f0100000000000000008310612c1a577a184f03e93ff9f4daa797ed6e38ed64bf6a1f0100000000000000008381612c10577f4e487b7100000000000000000000000000000000000000000000000000000000600052601260045260246000fd5b0492506040810190505b6d04ee2d6d415b85acef81000000008310612c7d576d04ee2d6d415b85acef81000000008381612c73577f4e487b7100000000000000000000000000000000000000000000000000000000600052601260045260246000fd5b0492506020810190505b662386f26fc100008310612cd257662386f26fc100008381612cc8577f4e487b7100000000000000000000000000000000000000000000000000000000600052601260045260246000fd5b0492506010810190505b6305f5e1008310612d21576305f5e1008381612d17577f4e487b7100000000000000000000000000000000000000000000000000000000600052601260045260246000fd5b0492506008810190505b6127108310612d6c576127108381612d62577f4e487b7100000000000000000000000000000000000000000000000000000000600052601260045260246000fd5b0492506004810190505b60648310612db55760648381612dab577f4e487b7100000000000000000000000000000000000000000000000000000000600052601260045260246000fd5b0492506002810190505b600a8310612dc4576001810190505b80915050919050565b6040518060c0016040528060008152602001600073ffffffffffffffffffffffffffffffffffffffff168152602001600073ffffffffffffffffffffffffffffffffffffffff16815260200160008152602001600081526020016000151581525090565b828054612e3d90613df1565b90600052602060002090601f016020900481019282612e5f5760008555612ea6565b82601f10612e7857805160ff1916838001178555612ea6565b82800160010185558215612ea6579182015b82811115612ea5578251825591602001919060010190612e8a565b5b509050612eb39190612eb7565b5090565b5b80821115612ed0576000816000905550600101612eb8565b5090565b6000612ee7612ee284613b36565b613b11565b905082815260208101848484011115612eff57600080fd5b612f0a848285613daf565b509392505050565b6000612f25612f2084613b67565b613b11565b905082815260208101848484011115612f3d57600080fd5b612f48848285613daf565b509392505050565b600081359050612f5f81614463565b92915050565b600081359050612f748161447a565b92915050565b600081359050612f8981614491565b92915050565b600081519050612f9e81614491565b92915050565b600082601f830112612fb557600080fd5b8135612fc5848260208601612ed4565b91505092915050565b600082601f830112612fdf57600080fd5b8135612fef848260208601612f12565b91505092915050565b600081359050613007816144a8565b92915050565b60006020828403121561301f57600080fd5b600061302d84828501612f50565b91505092915050565b6000806040838503121561304957600080fd5b600061305785828601612f50565b925050602061306885828601612f50565b9150509250929050565b60008060006060848603121561308757600080fd5b600061309586828701612f50565b93505060206130a686828701612f50565b92505060406130b786828701612ff8565b9150509250925092565b600080600080608085870312156130d757600080fd5b60006130e587828801612f50565b94505060206130f687828801612f50565b935050604061310787828801612ff8565b925050606085013567ffffffffffffffff81111561312457600080fd5b61313087828801612fa4565b91505092959194509250565b6000806040838503121561314f57600080fd5b600061315d85828601612f50565b925050602061316e85828601612f65565b9150509250929050565b6000806040838503121561318b57600080fd5b600061319985828601612f50565b92505060206131aa85828601612ff8565b9150509250929050565b6000602082840312156131c657600080fd5b60006131d484828501612f7a565b91505092915050565b6000602082840312156131ef57600080fd5b60006131fd84828501612f8f565b91505092915050565b60008060006060848603121561321b57600080fd5b600084013567ffffffffffffffff81111561323557600080fd5b61324186828701612fce565b935050602061325286828701612ff8565b925050604061326386828701612ff8565b9150509250925092565b60006020828403121561327f57600080fd5b600061328d84828501612ff8565b91505092915050565b600080604083850312156132a957600080fd5b60006132b785828601612ff8565b92505060206132c885828601612ff8565b9150509250929050565b60006132de83836136c0565b60c08301905092915050565b6132f381613d3b565b82525050565b61330281613d29565b82525050565b600061331382613ba8565b61331d8185613bd6565b935061332883613b98565b8060005b8381101561335957815161334088826132d2565b975061334b83613bc9565b92505060018101905061332c565b5085935050505092915050565b61336f81613d4d565b82525050565b61337e81613d4d565b82525050565b600061338f82613bb3565b6133998185613be7565b93506133a9818560208601613dbe565b6133b281613f59565b840191505092915050565b60006133c882613bbe565b6133d28185613bf8565b93506133e2818560208601613dbe565b6133eb81613f59565b840191505092915050565b600061340182613bbe565b61340b8185613c09565b935061341b818560208601613dbe565b80840191505092915050565b6000613434602d83613bf8565b915061343f82613f6a565b604082019050919050565b6000613457601b83613bf8565b915061346282613fb9565b602082019050919050565b600061347a603283613bf8565b915061348582613fe2565b604082019050919050565b600061349d602583613bf8565b91506134a882614031565b604082019050919050565b60006134c0601c83613bf8565b91506134cb82614080565b602082019050919050565b60006134e3602483613bf8565b91506134ee826140a9565b604082019050919050565b6000613506603483613bf8565b9150613511826140f8565b604082019050919050565b6000613529601983613bf8565b915061353482614147565b602082019050919050565b600061354c602983613bf8565b915061355782614170565b604082019050919050565b600061356f602e83613bf8565b915061357a826141bf565b604082019050919050565b6000613592604083613bf8565b915061359d8261420e565b604082019050919050565b60006135b5602083613bf8565b91506135c08261425d565b602082019050919050565b60006135d8602a83613bf8565b91506135e382614286565b604082019050919050565b60006135fb601883613bf8565b9150613606826142d5565b602082019050919050565b600061361e602183613bf8565b9150613629826142fe565b604082019050919050565b6000613641602483613bf8565b915061364c8261434d565b604082019050919050565b6000613664603d83613bf8565b915061366f8261439c565b604082019050919050565b6000613687603083613bf8565b9150613692826143eb565b604082019050919050565b60006136aa601c83613bf8565b91506136b58261443a565b602082019050919050565b60c0820160008201516136d6600085018261373b565b5060208201516136e960208501826132ea565b5060408201516136fc60408501826132ea565b50606082015161370f606085018261373b565b506080820151613722608085018261373b565b5060a082015161373560a0850182613366565b50505050565b61374481613da5565b82525050565b61375381613da5565b82525050565b600061376582856133f6565b915061377182846133f6565b91508190509392505050565b600060208201905061379260008301846132f9565b92915050565b60006080820190506137ad60008301876132f9565b6137ba60208301866132f9565b6137c7604083018561374a565b81810360608301526137d98184613384565b905095945050505050565b600060a0820190506137f960008301886132f9565b61380660208301876132f9565b613813604083018661374a565b613820606083018561374a565b61382d6080830184613375565b9695505050505050565b600060208201905081810360008301526138518184613308565b905092915050565b600060208201905061386e6000830184613375565b92915050565b6000602082019050818103600083015261388e81846133bd565b905092915050565b600060208201905081810360008301526138af81613427565b9050919050565b600060208201905081810360008301526138cf8161344a565b9050919050565b600060208201905081810360008301526138ef8161346d565b9050919050565b6000602082019050818103600083015261390f81613490565b9050919050565b6000602082019050818103600083015261392f816134b3565b9050919050565b6000602082019050818103600083015261394f816134d6565b9050919050565b6000602082019050818103600083015261396f816134f9565b9050919050565b6000602082019050818103600083015261398f8161351c565b9050919050565b600060208201905081810360008301526139af8161353f565b9050919050565b600060208201905081810360008301526139cf81613562565b9050919050565b600060208201905081810360008301526139ef81613585565b9050919050565b60006020820190508181036000830152613a0f816135a8565b9050919050565b60006020820190508181036000830152613a2f816135cb565b9050919050565b60006020820190508181036000830152613a4f816135ee565b9050919050565b60006020820190508181036000830152613a6f81613611565b9050919050565b60006020820190508181036000830152613a8f81613634565b9050919050565b60006020820190508181036000830152613aaf81613657565b9050919050565b60006020820190508181036000830152613acf8161367a565b9050919050565b60006020820190508181036000830152613aef8161369d565b9050919050565b6000602082019050613b0b600083018461374a565b92915050565b6000613b1b613b2c565b9050613b278282613e23565b919050565b6000604051905090565b600067ffffffffffffffff821115613b5157613b50613f2a565b5b613b5a82613f59565b9050602081019050919050565b600067ffffffffffffffff821115613b8257613b81613f2a565b5b613b8b82613f59565b9050602081019050919050565b6000819050602082019050919050565b600081519050919050565b600081519050919050565b600081519050919050565b6000602082019050919050565b600082825260208201905092915050565b600082825260208201905092915050565b600082825260208201905092915050565b600081905092915050565b6000613c1f82613da5565b9150613c2a83613da5565b9250827fffffffffffffffffffffffffffffffffffffffffffffffffffffffffffffffff03821115613c5f57613c5e613e9d565b5b828201905092915050565b6000613c7582613da5565b9150613c8083613da5565b925082613c9057613c8f613ecc565b5b828204905092915050565b6000613ca682613da5565b9150613cb183613da5565b9250817fffffffffffffffffffffffffffffffffffffffffffffffffffffffffffffffff0483118215151615613cea57613ce9613e9d565b5b828202905092915050565b6000613d0082613da5565b9150613d0b83613da5565b925082821015613d1e57613d1d613e9d565b5b828203905092915050565b6000613d3482613d85565b9050919050565b6000613d4682613d85565b9050919050565b60008115159050919050565b60007fffffffff0000000000000000000000000000000000000000000000000000000082169050919050565b600073ffffffffffffffffffffffffffffffffffffffff82169050919050565b6000819050919050565b82818337600083830152505050565b60005b83811015613ddc578082015181840152602081019050613dc1565b83811115613deb576000848401525b50505050565b60006002820490506001821680613e0957607f821691505b60208210811415613e1d57613e1c613efb565b5b50919050565b613e2c82613f59565b810181811067ffffffffffffffff82111715613e4b57613e4a613f2a565b5b80604052505050565b6000613e5f82613da5565b91507fffffffffffffffffffffffffffffffffffffffffffffffffffffffffffffffff821415613e9257613e91613e9d565b5b600182019050919050565b7f4e487b7100000000000000000000000000000000000000000000000000000000600052601160045260246000fd5b7f4e487b7100000000000000000000000000000000000000000000000000000000600052601260045260246000fd5b7f4e487b7100000000000000000000000000000000000000000000000000000000600052602260045260246000fd5b7f4e487b7100000000000000000000000000000000000000000000000000000000600052604160045260246000fd5b6000601f19601f8301169050919050565b7f4552433732313a2063616c6c6572206973206e6f7420746f6b656e206f776e6560008201527f72206f7220617070726f76656400000000000000000000000000000000000000602082015250565b7f436f756e7465723a2064656372656d656e74206f766572666c6f770000000000600082015250565b7f4552433732313a207472616e7366657220746f206e6f6e20455243373231526560008201527f63656976657220696d706c656d656e7465720000000000000000000000000000602082015250565b7f4552433732313a207472616e736665722066726f6d20696e636f72726563742060008201527f6f776e6572000000000000000000000000000000000000000000000000000000602082015250565b7f4552433732313a20746f6b656e20616c7265616479206d696e74656400000000600082015250565b7f4552433732313a207472616e7366657220746f20746865207a65726f2061646460008201527f7265737300000000000000000000000000000000000000000000000000000000602082015250565b7f526f79616c74792070657263656e74616765206d757374206265206c6573732060008201527f7468616e206f7220657175616c20746f20313030000000000000000000000000602082015250565b7f4552433732313a20617070726f766520746f2063616c6c657200000000000000600082015250565b7f4552433732313a2061646472657373207a65726f206973206e6f74206120766160008201527f6c6964206f776e65720000000000000000000000000000000000000000000000602082015250565b7f45524337323155524953746f726167653a2055524920736574206f66206e6f6e60008201527f6578697374656e7420746f6b656e000000000000000000000000000000000000602082015250565b7f506c65617365207375626d6974207468652061736b696e67207072696365206960008201527f6e206f7264657220746f20636f6d706c65746520746865207075726368617365602082015250565b7f4552433732313a206d696e7420746f20746865207a65726f2061646472657373600082015250565b7f4f6e6c79206974656d206f776e65722063616e20706572666f726d207468697360008201527f206f7065726174696f6e00000000000000000000000000000000000000000000602082015250565b7f4552433732313a20696e76616c696420746f6b656e2049440000000000000000600082015250565b7f4552433732313a20617070726f76616c20746f2063757272656e74206f776e6560008201527f7200000000000000000000000000000000000000000000000000000000000000602082015250565b7f5072696365206d75737420626520657175616c20746f206c697374696e67207060008201527f7269636500000000000000000000000000000000000000000000000000000000602082015250565b7f4552433732313a20617070726f76652063616c6c6572206973206e6f7420746f60008201527f6b656e206f776e6572206f7220617070726f76656420666f7220616c6c000000602082015250565b7f4f6e6c79206d61726b6574706c616365206f776e65722063616e20757064617460008201527f65206c697374696e672070726963652e00000000000000000000000000000000602082015250565b7f5072696365206d757374206265206174206c6561737420312077656900000000600082015250565b61446c81613d29565b811461447757600080fd5b50565b61448381613d4d565b811461448e57600080fd5b50565b61449a81613d59565b81146144a557600080fd5b50565b6144b181613da5565b81146144bc57600080fd5b5056fea264697066735822122072900a1d038247f4486abf857c5ed872b85065f1201bbe05abcc17e766df830764736f6c63430008040033",
  "linkReferences": {},
  "deployedLinkReferences": {}
}