{
  "_format": "hh-sol-artifact-1",
  "contractName": "NFTMarketplace",
  "sourceName": "contracts/NFTMarketplace.sol",
  "abi": [
    {
      "inputs": [],
      "stateMutability": "nonpayable",
      "type": "constructor"
    },
    {
      "anonymous": false,
      "inputs": [
        {
          "indexed": true,
          "internalType": "address",
          "name": "owner",
          "type": "address"
        },
        {
          "indexed": true,
          "internalType": "address",
          "name": "approved",
          "type": "address"
        },
        {
          "indexed": true,
          "internalType": "uint256",
          "name": "tokenId",
          "type": "uint256"
        }
      ],
      "name": "Approval",
      "type": "event"
    },
    {
      "anonymous": false,
      "inputs": [
        {
          "indexed": true,
          "internalType": "address",
          "name": "owner",
          "type": "address"
        },
        {
          "indexed": true,
          "internalType": "address",
          "name": "operator",
          "type": "address"
        },
        {
          "indexed": false,
          "internalType": "bool",
          "name": "approved",
          "type": "bool"
        }
      ],
      "name": "ApprovalForAll",
      "type": "event"
    },
    {
      "anonymous": false,
      "inputs": [
        {
          "indexed": false,
          "internalType": "uint256",
          "name": "_fromTokenId",
          "type": "uint256"
        },
        {
          "indexed": false,
          "internalType": "uint256",
          "name": "_toTokenId",
          "type": "uint256"
        }
      ],
      "name": "BatchMetadataUpdate",
      "type": "event"
    },
    {
      "anonymous": false,
      "inputs": [
        {
          "indexed": true,
          "internalType": "uint256",
          "name": "tokenId",
          "type": "uint256"
        },
        {
          "indexed": false,
          "internalType": "address",
          "name": "seller",
          "type": "address"
        },
        {
          "indexed": false,
          "internalType": "address",
          "name": "owner",
          "type": "address"
        },
        {
          "indexed": false,
          "internalType": "uint256",
          "name": "price",
          "type": "uint256"
        },
        {
          "indexed": false,
          "internalType": "uint256",
          "name": "royaltyPercentage",
          "type": "uint256"
        },
        {
          "indexed": false,
          "internalType": "bool",
          "name": "sold",
          "type": "bool"
        }
      ],
      "name": "MarketItemCreated",
      "type": "event"
    },
    {
      "anonymous": false,
      "inputs": [
        {
          "indexed": false,
          "internalType": "uint256",
          "name": "_tokenId",
          "type": "uint256"
        }
      ],
      "name": "MetadataUpdate",
      "type": "event"
    },
    {
      "anonymous": false,
      "inputs": [
        {
          "indexed": true,
          "internalType": "address",
          "name": "from",
          "type": "address"
        },
        {
          "indexed": true,
          "internalType": "address",
          "name": "to",
          "type": "address"
        },
        {
          "indexed": true,
          "internalType": "uint256",
          "name": "tokenId",
          "type": "uint256"
        }
      ],
      "name": "Transfer",
      "type": "event"
    },
    {
      "inputs": [
        {
          "internalType": "address",
          "name": "to",
          "type": "address"
        },
        {
          "internalType": "uint256",
          "name": "tokenId",
          "type": "uint256"
        }
      ],
      "name": "approve",
      "outputs": [],
      "stateMutability": "nonpayable",
      "type": "function"
    },
    {
      "inputs": [
        {
          "internalType": "address",
          "name": "owner",
          "type": "address"
        }
      ],
      "name": "balanceOf",
      "outputs": [
        {
          "internalType": "uint256",
          "name": "",
          "type": "uint256"
        }
      ],
      "stateMutability": "view",
      "type": "function"
    },
    {
      "inputs": [
        {
          "internalType": "uint256",
          "name": "tokenId",
          "type": "uint256"
        }
      ],
      "name": "createMarketSale",
      "outputs": [],
      "stateMutability": "payable",
      "type": "function"
    },
    {
      "inputs": [
        {
          "internalType": "string",
          "name": "tokenURI",
          "type": "string"
        },
        {
          "internalType": "uint256",
          "name": "price",
          "type": "uint256"
        },
        {
          "internalType": "uint256",
          "name": "_royaltyPercentage",
          "type": "uint256"
        }
      ],
      "name": "createToken",
      "outputs": [
        {
          "internalType": "uint256",
          "name": "",
          "type": "uint256"
        }
      ],
      "stateMutability": "payable",
      "type": "function"
    },
    {
      "inputs": [],
      "name": "fetchItemsListed",
      "outputs": [
        {
          "components": [
            {
              "internalType": "uint256",
              "name": "tokenId",
              "type": "uint256"
            },
            {
              "internalType": "address payable",
              "name": "seller",
              "type": "address"
            },
            {
              "internalType": "address payable",
              "name": "owner",
              "type": "address"
            },
            {
              "internalType": "address payable",
              "name": "orignalOwner",
              "type": "address"
            },
            {
              "internalType": "uint256",
              "name": "price",
              "type": "uint256"
            },
            {
              "internalType": "uint256",
              "name": "royaltyPercentage",
              "type": "uint256"
            },
            {
              "internalType": "bool",
              "name": "sold",
              "type": "bool"
            }
          ],
          "internalType": "struct NFTMarketplace.MarketItem[]",
          "name": "",
          "type": "tuple[]"
        }
      ],
      "stateMutability": "view",
      "type": "function"
    },
    {
      "inputs": [],
      "name": "fetchMarketItems",
      "outputs": [
        {
          "components": [
            {
              "internalType": "uint256",
              "name": "tokenId",
              "type": "uint256"
            },
            {
              "internalType": "address payable",
              "name": "seller",
              "type": "address"
            },
            {
              "internalType": "address payable",
              "name": "owner",
              "type": "address"
            },
            {
              "internalType": "address payable",
              "name": "orignalOwner",
              "type": "address"
            },
            {
              "internalType": "uint256",
              "name": "price",
              "type": "uint256"
            },
            {
              "internalType": "uint256",
              "name": "royaltyPercentage",
              "type": "uint256"
            },
            {
              "internalType": "bool",
              "name": "sold",
              "type": "bool"
            }
          ],
          "internalType": "struct NFTMarketplace.MarketItem[]",
          "name": "",
          "type": "tuple[]"
        }
      ],
      "stateMutability": "view",
      "type": "function"
    },
    {
      "inputs": [],
      "name": "fetchMyNFTs",
      "outputs": [
        {
          "components": [
            {
              "internalType": "uint256",
              "name": "tokenId",
              "type": "uint256"
            },
            {
              "internalType": "address payable",
              "name": "seller",
              "type": "address"
            },
            {
              "internalType": "address payable",
              "name": "owner",
              "type": "address"
            },
            {
              "internalType": "address payable",
              "name": "orignalOwner",
              "type": "address"
            },
            {
              "internalType": "uint256",
              "name": "price",
              "type": "uint256"
            },
            {
              "internalType": "uint256",
              "name": "royaltyPercentage",
              "type": "uint256"
            },
            {
              "internalType": "bool",
              "name": "sold",
              "type": "bool"
            }
          ],
          "internalType": "struct NFTMarketplace.MarketItem[]",
          "name": "",
          "type": "tuple[]"
        }
      ],
      "stateMutability": "view",
      "type": "function"
    },
    {
      "inputs": [
        {
          "internalType": "uint256",
          "name": "tokenId",
          "type": "uint256"
        }
      ],
      "name": "getApproved",
      "outputs": [
        {
          "internalType": "address",
          "name": "",
          "type": "address"
        }
      ],
      "stateMutability": "view",
      "type": "function"
    },
    {
      "inputs": [],
      "name": "getListingPrice",
      "outputs": [
        {
          "internalType": "uint256",
          "name": "",
          "type": "uint256"
        }
      ],
      "stateMutability": "view",
      "type": "function"
    },
    {
      "inputs": [
        {
          "internalType": "address",
          "name": "owner",
          "type": "address"
        },
        {
          "internalType": "address",
          "name": "operator",
          "type": "address"
        }
      ],
      "name": "isApprovedForAll",
      "outputs": [
        {
          "internalType": "bool",
          "name": "",
          "type": "bool"
        }
      ],
      "stateMutability": "view",
      "type": "function"
    },
    {
      "inputs": [],
      "name": "name",
      "outputs": [
        {
          "internalType": "string",
          "name": "",
          "type": "string"
        }
      ],
      "stateMutability": "view",
      "type": "function"
    },
    {
      "inputs": [
        {
          "internalType": "uint256",
          "name": "tokenId",
          "type": "uint256"
        }
      ],
      "name": "ownerOf",
      "outputs": [
        {
          "internalType": "address",
          "name": "",
          "type": "address"
        }
      ],
      "stateMutability": "view",
      "type": "function"
    },
    {
      "inputs": [
        {
          "internalType": "uint256",
          "name": "tokenId",
          "type": "uint256"
        },
        {
          "internalType": "uint256",
          "name": "price",
          "type": "uint256"
        }
      ],
      "name": "resellToken",
      "outputs": [],
      "stateMutability": "payable",
      "type": "function"
    },
    {
      "inputs": [
        {
          "internalType": "address",
          "name": "from",
          "type": "address"
        },
        {
          "internalType": "address",
          "name": "to",
          "type": "address"
        },
        {
          "internalType": "uint256",
          "name": "tokenId",
          "type": "uint256"
        }
      ],
      "name": "safeTransferFrom",
      "outputs": [],
      "stateMutability": "nonpayable",
      "type": "function"
    },
    {
      "inputs": [
        {
          "internalType": "address",
          "name": "from",
          "type": "address"
        },
        {
          "internalType": "address",
          "name": "to",
          "type": "address"
        },
        {
          "internalType": "uint256",
          "name": "tokenId",
          "type": "uint256"
        },
        {
          "internalType": "bytes",
          "name": "data",
          "type": "bytes"
        }
      ],
      "name": "safeTransferFrom",
      "outputs": [],
      "stateMutability": "nonpayable",
      "type": "function"
    },
    {
      "inputs": [
        {
          "internalType": "address",
          "name": "operator",
          "type": "address"
        },
        {
          "internalType": "bool",
          "name": "approved",
          "type": "bool"
        }
      ],
      "name": "setApprovalForAll",
      "outputs": [],
      "stateMutability": "nonpayable",
      "type": "function"
    },
    {
      "inputs": [
        {
          "internalType": "bytes4",
          "name": "interfaceId",
          "type": "bytes4"
        }
      ],
      "name": "supportsInterface",
      "outputs": [
        {
          "internalType": "bool",
          "name": "",
          "type": "bool"
        }
      ],
      "stateMutability": "view",
      "type": "function"
    },
    {
      "inputs": [],
      "name": "symbol",
      "outputs": [
        {
          "internalType": "string",
          "name": "",
          "type": "string"
        }
      ],
      "stateMutability": "view",
      "type": "function"
    },
    {
      "inputs": [
        {
          "internalType": "uint256",
          "name": "tokenId",
          "type": "uint256"
        }
      ],
      "name": "tokenURI",
      "outputs": [
        {
          "internalType": "string",
          "name": "",
          "type": "string"
        }
      ],
      "stateMutability": "view",
      "type": "function"
    },
    {
      "inputs": [
        {
          "internalType": "address",
          "name": "from",
          "type": "address"
        },
        {
          "internalType": "address",
          "name": "to",
          "type": "address"
        },
        {
          "internalType": "uint256",
          "name": "tokenId",
          "type": "uint256"
        }
      ],
      "name": "transferFrom",
      "outputs": [],
      "stateMutability": "nonpayable",
      "type": "function"
    },
    {
      "inputs": [
        {
          "internalType": "uint256",
          "name": "_listingPrice",
          "type": "uint256"
        }
      ],
      "name": "updateListingPrice",
      "outputs": [],
      "stateMutability": "payable",
      "type": "function"
    }
  ],
  "bytecode": "0x60806040526658d15e176280006009553480156200001c57600080fd5b506040518060400160405280601081526020017f4d657461766572736520546f6b656e73000000000000000000000000000000008152506040518060400160405280600481526020017f4d455454000000000000000000000000000000000000000000000000000000008152508160009080519060200190620000a192919062000104565b508060019080519060200190620000ba92919062000104565b50505033600a60006101000a81548173ffffffffffffffffffffffffffffffffffffffff021916908373ffffffffffffffffffffffffffffffffffffffff16021790555062000219565b8280546200011290620001b4565b90600052602060002090601f01602090048101928262000136576000855562000182565b82601f106200015157805160ff191683800117855562000182565b8280016001018555821562000182579182015b828111156200018157825182559160200191906001019062000164565b5b50905062000191919062000195565b5090565b5b80821115620001b057600081600090555060010162000196565b5090565b60006002820490506001821680620001cd57607f821691505b60208210811415620001e457620001e3620001ea565b5b50919050565b7f4e487b7100000000000000000000000000000000000000000000000000000000600052602260045260246000fd5b6146fc80620002296000396000f3fe60806040526004361061012a5760003560e01c80636352211e116100ab578063b88d4fde1161006f578063b88d4fde146103e5578063be9af5361461040e578063bec2a7c51461042a578063c87b56dd1461045a578063e219fc7514610497578063e985e9c5146104b35761012a565b80636352211e146102fb57806370a082311461033857806395d89b4114610375578063a22cb465146103a0578063ae677aa3146103c95761012a565b806312e85585116100f257806312e8558514610228578063202e37401461025357806323b872dd1461027e57806342842e0e146102a757806345f8fa80146102d05761012a565b806301ffc9a71461012f57806306fdde031461016c578063081812fc14610197578063095ea7b3146101d45780630f08efe0146101fd575b600080fd5b34801561013b57600080fd5b50610156600480360381019061015191906133a8565b6104f0565b6040516101639190613a60565b60405180910390f35b34801561017857600080fd5b50610181610551565b60405161018e9190613a7b565b60405180910390f35b3480156101a357600080fd5b506101be60048036038101906101b99190613461565b6105e3565b6040516101cb9190613984565b60405180910390f35b3480156101e057600080fd5b506101fb60048036038101906101f6919061336c565b610629565b005b34801561020957600080fd5b50610212610741565b60405161021f9190613a3e565b60405180910390f35b34801561023457600080fd5b5061023d610a56565b60405161024a9190613cfd565b60405180910390f35b34801561025f57600080fd5b50610268610a60565b6040516102759190613a3e565b60405180910390f35b34801561028a57600080fd5b506102a560048036038101906102a09190613266565b610dfa565b005b3480156102b357600080fd5b506102ce60048036038101906102c99190613266565b610e5a565b005b3480156102dc57600080fd5b506102e5610e7a565b6040516102f29190613a3e565b60405180910390f35b34801561030757600080fd5b50610322600480360381019061031d9190613461565b611214565b60405161032f9190613984565b60405180910390f35b34801561034457600080fd5b5061035f600480360381019061035a9190613201565b61129b565b60405161036c9190613cfd565b60405180910390f35b34801561038157600080fd5b5061038a611353565b6040516103979190613a7b565b60405180910390f35b3480156103ac57600080fd5b506103c760048036038101906103c29190613330565b6113e5565b005b6103e360048036038101906103de9190613461565b6113fb565b005b3480156103f157600080fd5b5061040c600480360381019061040791906132b5565b611495565b005b61042860048036038101906104239190613461565b6114f7565b005b610444600480360381019061043f91906133fa565b6117f0565b6040516104519190613cfd565b60405180910390f35b34801561046657600080fd5b50610481600480360381019061047c9190613461565b611834565b60405161048e9190613a7b565b60405180910390f35b6104b160048036038101906104ac919061348a565b611947565b005b3480156104bf57600080fd5b506104da60048036038101906104d5919061322a565b611b3c565b6040516104e79190613a60565b60405180910390f35b6000634906490660e01b7bffffffffffffffffffffffffffffffffffffffffffffffffffffffff1916827bffffffffffffffffffffffffffffffffffffffffffffffffffffffff1916148061054a575061054982611bd0565b5b9050919050565b60606000805461056090613ff8565b80601f016020809104026020016040519081016040528092919081815260200182805461058c90613ff8565b80156105d95780601f106105ae576101008083540402835291602001916105d9565b820191906000526020600020905b8154815290600101906020018083116105bc57829003601f168201915b5050505050905090565b60006105ee82611cb2565b6004600083815260200190815260200160002060009054906101000a900473ffffffffffffffffffffffffffffffffffffffff169050919050565b600061063482611214565b90508073ffffffffffffffffffffffffffffffffffffffff168373ffffffffffffffffffffffffffffffffffffffff1614156106a5576040517f08c379a000000000000000000000000000000000000000000000000000000000815260040161069c90613c5d565b60405180910390fd5b8073ffffffffffffffffffffffffffffffffffffffff166106c4611cfd565b73ffffffffffffffffffffffffffffffffffffffff1614806106f357506106f2816106ed611cfd565b611b3c565b5b610732576040517f08c379a000000000000000000000000000000000000000000000000000000000815260040161072990613c9d565b60405180910390fd5b61073c8383611d05565b505050565b6060600061074f6007611dbe565b9050600061075d6008611dbe565b6107676007611dbe565b6107719190613efc565b90506000808267ffffffffffffffff8111156107b6577f4e487b7100000000000000000000000000000000000000000000000000000000600052604160045260246000fd5b6040519080825280602002602001820160405280156107ef57816020015b6107dc612fa4565b8152602001906001900390816107d45790505b50905060005b84811015610a4b573073ffffffffffffffffffffffffffffffffffffffff16600b60006001846108259190613e1b565b815260200190815260200160002060020160009054906101000a900473ffffffffffffffffffffffffffffffffffffffff1673ffffffffffffffffffffffffffffffffffffffff161415610a385760006001826108829190613e1b565b90506000600b60008381526020019081526020016000209050806040518060e0016040529081600082015481526020016001820160009054906101000a900473ffffffffffffffffffffffffffffffffffffffff1673ffffffffffffffffffffffffffffffffffffffff1673ffffffffffffffffffffffffffffffffffffffff1681526020016002820160009054906101000a900473ffffffffffffffffffffffffffffffffffffffff1673ffffffffffffffffffffffffffffffffffffffff1673ffffffffffffffffffffffffffffffffffffffff1681526020016003820160009054906101000a900473ffffffffffffffffffffffffffffffffffffffff1673ffffffffffffffffffffffffffffffffffffffff1673ffffffffffffffffffffffffffffffffffffffff16815260200160048201548152602001600582015481526020016006820160009054906101000a900460ff161515151581525050848681518110610a1b577f4e487b7100000000000000000000000000000000000000000000000000000000600052603260045260246000fd5b6020026020010181905250600185610a339190613e1b565b945050505b8080610a439061405b565b9150506107f5565b508094505050505090565b6000600954905090565b60606000610a6e6007611dbe565b905060008060005b83811015610b17573373ffffffffffffffffffffffffffffffffffffffff16600b6000600184610aa69190613e1b565b815260200190815260200160002060020160009054906101000a900473ffffffffffffffffffffffffffffffffffffffff1673ffffffffffffffffffffffffffffffffffffffff161415610b0457600183610b019190613e1b565b92505b8080610b0f9061405b565b915050610a76565b5060008267ffffffffffffffff811115610b5a577f4e487b7100000000000000000000000000000000000000000000000000000000600052604160045260246000fd5b604051908082528060200260200182016040528015610b9357816020015b610b80612fa4565b815260200190600190039081610b785790505b50905060005b84811015610def573373ffffffffffffffffffffffffffffffffffffffff16600b6000600184610bc99190613e1b565b815260200190815260200160002060020160009054906101000a900473ffffffffffffffffffffffffffffffffffffffff1673ffffffffffffffffffffffffffffffffffffffff161415610ddc576000600182610c269190613e1b565b90506000600b60008381526020019081526020016000209050806040518060e0016040529081600082015481526020016001820160009054906101000a900473ffffffffffffffffffffffffffffffffffffffff1673ffffffffffffffffffffffffffffffffffffffff1673ffffffffffffffffffffffffffffffffffffffff1681526020016002820160009054906101000a900473ffffffffffffffffffffffffffffffffffffffff1673ffffffffffffffffffffffffffffffffffffffff1673ffffffffffffffffffffffffffffffffffffffff1681526020016003820160009054906101000a900473ffffffffffffffffffffffffffffffffffffffff1673ffffffffffffffffffffffffffffffffffffffff1673ffffffffffffffffffffffffffffffffffffffff16815260200160048201548152602001600582015481526020016006820160009054906101000a900460ff161515151581525050848681518110610dbf577f4e487b7100000000000000000000000000000000000000000000000000000000600052603260045260246000fd5b6020026020010181905250600185610dd79190613e1b565b945050505b8080610de79061405b565b915050610b99565b508094505050505090565b610e0b610e05611cfd565b82611dcc565b610e4a576040517f08c379a0000000000000000000000000000000000000000000000000000000008152600401610e4190613a9d565b60405180910390fd5b610e55838383611e61565b505050565b610e7583838360405180602001604052806000815250611495565b505050565b60606000610e886007611dbe565b905060008060005b83811015610f31573373ffffffffffffffffffffffffffffffffffffffff16600b6000600184610ec09190613e1b565b815260200190815260200160002060010160009054906101000a900473ffffffffffffffffffffffffffffffffffffffff1673ffffffffffffffffffffffffffffffffffffffff161415610f1e57600183610f1b9190613e1b565b92505b8080610f299061405b565b915050610e90565b5060008267ffffffffffffffff811115610f74577f4e487b7100000000000000000000000000000000000000000000000000000000600052604160045260246000fd5b604051908082528060200260200182016040528015610fad57816020015b610f9a612fa4565b815260200190600190039081610f925790505b50905060005b84811015611209573373ffffffffffffffffffffffffffffffffffffffff16600b6000600184610fe39190613e1b565b815260200190815260200160002060010160009054906101000a900473ffffffffffffffffffffffffffffffffffffffff1673ffffffffffffffffffffffffffffffffffffffff1614156111f65760006001826110409190613e1b565b90506000600b60008381526020019081526020016000209050806040518060e0016040529081600082015481526020016001820160009054906101000a900473ffffffffffffffffffffffffffffffffffffffff1673ffffffffffffffffffffffffffffffffffffffff1673ffffffffffffffffffffffffffffffffffffffff1681526020016002820160009054906101000a900473ffffffffffffffffffffffffffffffffffffffff1673ffffffffffffffffffffffffffffffffffffffff1673ffffffffffffffffffffffffffffffffffffffff1681526020016003820160009054906101000a900473ffffffffffffffffffffffffffffffffffffffff1673ffffffffffffffffffffffffffffffffffffffff1673ffffffffffffffffffffffffffffffffffffffff16815260200160048201548152602001600582015481526020016006820160009054906101000a900460ff1615151515815250508486815181106111d9577f4e487b7100000000000000000000000000000000000000000000000000000000600052603260045260246000fd5b60200260200101819052506001856111f19190613e1b565b945050505b80806112019061405b565b915050610fb3565b508094505050505090565b6000806112208361215b565b9050600073ffffffffffffffffffffffffffffffffffffffff168173ffffffffffffffffffffffffffffffffffffffff161415611292576040517f08c379a000000000000000000000000000000000000000000000000000000000815260040161128990613c3d565b60405180910390fd5b80915050919050565b60008073ffffffffffffffffffffffffffffffffffffffff168273ffffffffffffffffffffffffffffffffffffffff16141561130c576040517f08c379a000000000000000000000000000000000000000000000000000000000815260040161130390613b9d565b60405180910390fd5b600360008373ffffffffffffffffffffffffffffffffffffffff1673ffffffffffffffffffffffffffffffffffffffff168152602001908152602001600020549050919050565b60606001805461136290613ff8565b80601f016020809104026020016040519081016040528092919081815260200182805461138e90613ff8565b80156113db5780601f106113b0576101008083540402835291602001916113db565b820191906000526020600020905b8154815290600101906020018083116113be57829003601f168201915b5050505050905090565b6113f76113f0611cfd565b8383612198565b5050565b3373ffffffffffffffffffffffffffffffffffffffff16600a60009054906101000a900473ffffffffffffffffffffffffffffffffffffffff1673ffffffffffffffffffffffffffffffffffffffff161461148b576040517f08c379a000000000000000000000000000000000000000000000000000000000815260040161148290613cbd565b60405180910390fd5b8060098190555050565b6114a66114a0611cfd565b83611dcc565b6114e5576040517f08c379a00000000000000000000000000000000000000000000000000000000081526004016114dc90613a9d565b60405180910390fd5b6114f184848484612305565b50505050565b6000600b6000838152602001908152602001600020600401549050803414611554576040517f08c379a000000000000000000000000000000000000000000000000000000000815260040161154b90613bdd565b60405180910390fd5b60006064600b6000858152602001908152602001600020600501548361157a9190613ea2565b6115849190613e71565b9050600081836115949190613efc565b90506115a1303386611e61565b600a60009054906101000a900473ffffffffffffffffffffffffffffffffffffffff1673ffffffffffffffffffffffffffffffffffffffff166108fc6009549081150290604051600060405180830381858888f1935050505015801561160b573d6000803e3d6000fd5b50600b600085815260200190815260200160002060030160009054906101000a900473ffffffffffffffffffffffffffffffffffffffff1673ffffffffffffffffffffffffffffffffffffffff166108fc839081150290604051600060405180830381858888f19350505050158015611688573d6000803e3d6000fd5b50600b600085815260200190815260200160002060010160009054906101000a900473ffffffffffffffffffffffffffffffffffffffff1673ffffffffffffffffffffffffffffffffffffffff166108fc829081150290604051600060405180830381858888f19350505050158015611705573d6000803e3d6000fd5b5033600b600086815260200190815260200160002060020160006101000a81548173ffffffffffffffffffffffffffffffffffffffff021916908373ffffffffffffffffffffffffffffffffffffffff1602179055506001600b600086815260200190815260200160002060060160006101000a81548160ff0219169083151502179055506117946008612361565b6000600b600086815260200190815260200160002060010160006101000a81548173ffffffffffffffffffffffffffffffffffffffff021916908373ffffffffffffffffffffffffffffffffffffffff16021790555050505050565b60006117fc6007612361565b60006118086007611dbe565b90506118143382612377565b61181e8186612595565b611829818585612640565b809150509392505050565b606061183f82611cb2565b600060066000848152602001908152602001600020805461185f90613ff8565b80601f016020809104026020016040519081016040528092919081815260200182805461188b90613ff8565b80156118d85780601f106118ad576101008083540402835291602001916118d8565b820191906000526020600020905b8154815290600101906020018083116118bb57829003601f168201915b5050505050905060006118e96128fd565b90506000815114156118ff578192505050611942565b60008251111561193457808260405160200161191c929190613960565b60405160208183030381529060405292505050611942565b61193d84612914565b925050505b919050565b3373ffffffffffffffffffffffffffffffffffffffff16600b600084815260200190815260200160002060020160009054906101000a900473ffffffffffffffffffffffffffffffffffffffff1673ffffffffffffffffffffffffffffffffffffffff16146119eb576040517f08c379a00000000000000000000000000000000000000000000000000000000081526004016119e290613c1d565b60405180910390fd5b6009543414611a2f576040517f08c379a0000000000000000000000000000000000000000000000000000000008152600401611a2690613c7d565b60405180910390fd5b6000600b600084815260200190815260200160002060060160006101000a81548160ff02191690831515021790555080600b60008481526020019081526020016000206004018190555033600b600084815260200190815260200160002060010160006101000a81548173ffffffffffffffffffffffffffffffffffffffff021916908373ffffffffffffffffffffffffffffffffffffffff16021790555030600b600084815260200190815260200160002060020160006101000a81548173ffffffffffffffffffffffffffffffffffffffff021916908373ffffffffffffffffffffffffffffffffffffffff160217905550611b2d600861297c565b611b38333084611e61565b5050565b6000600560008473ffffffffffffffffffffffffffffffffffffffff1673ffffffffffffffffffffffffffffffffffffffff16815260200190815260200160002060008373ffffffffffffffffffffffffffffffffffffffff1673ffffffffffffffffffffffffffffffffffffffff16815260200190815260200160002060009054906101000a900460ff16905092915050565b60007f80ac58cd000000000000000000000000000000000000000000000000000000007bffffffffffffffffffffffffffffffffffffffffffffffffffffffff1916827bffffffffffffffffffffffffffffffffffffffffffffffffffffffff19161480611c9b57507f5b5e139f000000000000000000000000000000000000000000000000000000007bffffffffffffffffffffffffffffffffffffffffffffffffffffffff1916827bffffffffffffffffffffffffffffffffffffffffffffffffffffffff1916145b80611cab5750611caa826129d8565b5b9050919050565b611cbb81612a42565b611cfa576040517f08c379a0000000000000000000000000000000000000000000000000000000008152600401611cf190613c3d565b60405180910390fd5b50565b600033905090565b816004600083815260200190815260200160002060006101000a81548173ffffffffffffffffffffffffffffffffffffffff021916908373ffffffffffffffffffffffffffffffffffffffff160217905550808273ffffffffffffffffffffffffffffffffffffffff16611d7883611214565b73ffffffffffffffffffffffffffffffffffffffff167f8c5be1e5ebec7d5bd14f71427d1e84f3dd0314c0f7b2291e5b200ac8c7c3b92560405160405180910390a45050565b600081600001549050919050565b600080611dd883611214565b90508073ffffffffffffffffffffffffffffffffffffffff168473ffffffffffffffffffffffffffffffffffffffff161480611e1a5750611e198185611b3c565b5b80611e5857508373ffffffffffffffffffffffffffffffffffffffff16611e40846105e3565b73ffffffffffffffffffffffffffffffffffffffff16145b91505092915050565b8273ffffffffffffffffffffffffffffffffffffffff16611e8182611214565b73ffffffffffffffffffffffffffffffffffffffff1614611ed7576040517f08c379a0000000000000000000000000000000000000000000000000000000008152600401611ece90613afd565b60405180910390fd5b600073ffffffffffffffffffffffffffffffffffffffff168273ffffffffffffffffffffffffffffffffffffffff161415611f47576040517f08c379a0000000000000000000000000000000000000000000000000000000008152600401611f3e90613b3d565b60405180910390fd5b611f548383836001612a83565b8273ffffffffffffffffffffffffffffffffffffffff16611f7482611214565b73ffffffffffffffffffffffffffffffffffffffff1614611fca576040517f08c379a0000000000000000000000000000000000000000000000000000000008152600401611fc190613afd565b60405180910390fd5b6004600082815260200190815260200160002060006101000a81549073ffffffffffffffffffffffffffffffffffffffff02191690556001600360008573ffffffffffffffffffffffffffffffffffffffff1673ffffffffffffffffffffffffffffffffffffffff168152602001908152602001600020600082825403925050819055506001600360008473ffffffffffffffffffffffffffffffffffffffff1673ffffffffffffffffffffffffffffffffffffffff16815260200190815260200160002060008282540192505081905550816002600083815260200190815260200160002060006101000a81548173ffffffffffffffffffffffffffffffffffffffff021916908373ffffffffffffffffffffffffffffffffffffffff160217905550808273ffffffffffffffffffffffffffffffffffffffff168473ffffffffffffffffffffffffffffffffffffffff167fddf252ad1be2c89b69c2b068fc378daa952ba7f163c4a11628f55a4df523b3ef60405160405180910390a46121568383836001612a89565b505050565b60006002600083815260200190815260200160002060009054906101000a900473ffffffffffffffffffffffffffffffffffffffff169050919050565b8173ffffffffffffffffffffffffffffffffffffffff168373ffffffffffffffffffffffffffffffffffffffff161415612207576040517f08c379a00000000000000000000000000000000000000000000000000000000081526004016121fe90613b7d565b60405180910390fd5b80600560008573ffffffffffffffffffffffffffffffffffffffff1673ffffffffffffffffffffffffffffffffffffffff16815260200190815260200160002060008473ffffffffffffffffffffffffffffffffffffffff1673ffffffffffffffffffffffffffffffffffffffff16815260200190815260200160002060006101000a81548160ff0219169083151502179055508173ffffffffffffffffffffffffffffffffffffffff168373ffffffffffffffffffffffffffffffffffffffff167f17307eab39ab6107e8899845ad3d59bd9653f200f220920489ca2b5937696c31836040516122f89190613a60565b60405180910390a3505050565b612310848484611e61565b61231c84848484612a8f565b61235b576040517f08c379a000000000000000000000000000000000000000000000000000000000815260040161235290613add565b60405180910390fd5b50505050565b6001816000016000828254019250508190555050565b600073ffffffffffffffffffffffffffffffffffffffff168273ffffffffffffffffffffffffffffffffffffffff1614156123e7576040517f08c379a00000000000000000000000000000000000000000000000000000000081526004016123de90613bfd565b60405180910390fd5b6123f081612a42565b15612430576040517f08c379a000000000000000000000000000000000000000000000000000000000815260040161242790613b1d565b60405180910390fd5b61243e600083836001612a83565b61244781612a42565b15612487576040517f08c379a000000000000000000000000000000000000000000000000000000000815260040161247e90613b1d565b60405180910390fd5b6001600360008473ffffffffffffffffffffffffffffffffffffffff1673ffffffffffffffffffffffffffffffffffffffff16815260200190815260200160002060008282540192505081905550816002600083815260200190815260200160002060006101000a81548173ffffffffffffffffffffffffffffffffffffffff021916908373ffffffffffffffffffffffffffffffffffffffff160217905550808273ffffffffffffffffffffffffffffffffffffffff16600073ffffffffffffffffffffffffffffffffffffffff167fddf252ad1be2c89b69c2b068fc378daa952ba7f163c4a11628f55a4df523b3ef60405160405180910390a4612591600083836001612a89565b5050565b61259e82612a42565b6125dd576040517f08c379a00000000000000000000000000000000000000000000000000000000081526004016125d490613bbd565b60405180910390fd5b80600660008481526020019081526020016000209080519060200190612604929190613025565b507ff8e1a15aba9398e019f0b49df1a4fde98ee17ae345cb5f6b5e2c27f5033e8ce7826040516126349190613cfd565b60405180910390a15050565b60008211612683576040517f08c379a000000000000000000000000000000000000000000000000000000000815260040161267a90613cdd565b60405180910390fd5b60648111156126c7576040517f08c379a00000000000000000000000000000000000000000000000000000000081526004016126be90613b5d565b60405180910390fd5b600954341461270b576040517f08c379a000000000000000000000000000000000000000000000000000000000815260040161270290613c7d565b60405180910390fd5b6040518060e001604052808481526020013373ffffffffffffffffffffffffffffffffffffffff1681526020013073ffffffffffffffffffffffffffffffffffffffff1681526020013373ffffffffffffffffffffffffffffffffffffffff16815260200183815260200182815260200160001515815250600b60008581526020019081526020016000206000820151816000015560208201518160010160006101000a81548173ffffffffffffffffffffffffffffffffffffffff021916908373ffffffffffffffffffffffffffffffffffffffff16021790555060408201518160020160006101000a81548173ffffffffffffffffffffffffffffffffffffffff021916908373ffffffffffffffffffffffffffffffffffffffff16021790555060608201518160030160006101000a81548173ffffffffffffffffffffffffffffffffffffffff021916908373ffffffffffffffffffffffffffffffffffffffff1602179055506080820151816004015560a0820151816005015560c08201518160060160006101000a81548160ff0219169083151502179055509050506128b7333085611e61565b827f04725f44278a0475942ea64180dcfe5b01f4834fa5ec4ef7249caa03eadb65b43330858560006040516128f09594939291906139eb565b60405180910390a2505050565b606060405180602001604052806000815250905090565b606061291f82611cb2565b60006129296128fd565b905060008151116129495760405180602001604052806000815250612974565b8061295384612c26565b604051602001612964929190613960565b6040516020818303038152906040525b915050919050565b600081600001549050600081116129c8576040517f08c379a00000000000000000000000000000000000000000000000000000000081526004016129bf90613abd565b60405180910390fd5b6001810382600001819055505050565b60007f01ffc9a7000000000000000000000000000000000000000000000000000000007bffffffffffffffffffffffffffffffffffffffffffffffffffffffff1916827bffffffffffffffffffffffffffffffffffffffffffffffffffffffff1916149050919050565b60008073ffffffffffffffffffffffffffffffffffffffff16612a648361215b565b73ffffffffffffffffffffffffffffffffffffffff1614159050919050565b50505050565b50505050565b6000612ab08473ffffffffffffffffffffffffffffffffffffffff16612d4a565b15612c19578373ffffffffffffffffffffffffffffffffffffffff1663150b7a02612ad9611cfd565b8786866040518563ffffffff1660e01b8152600401612afb949392919061399f565b602060405180830381600087803b158015612b1557600080fd5b505af1925050508015612b4657506040513d601f19601f82011682018060405250810190612b4391906133d1565b60015b612bc9573d8060008114612b76576040519150601f19603f3d011682016040523d82523d6000602084013e612b7b565b606091505b50600081511415612bc1576040517f08c379a0000000000000000000000000000000000000000000000000000000008152600401612bb890613add565b60405180910390fd5b805181602001fd5b63150b7a0260e01b7bffffffffffffffffffffffffffffffffffffffffffffffffffffffff1916817bffffffffffffffffffffffffffffffffffffffffffffffffffffffff191614915050612c1e565b600190505b949350505050565b606060006001612c3584612d6d565b01905060008167ffffffffffffffff811115612c7a577f4e487b7100000000000000000000000000000000000000000000000000000000600052604160045260246000fd5b6040519080825280601f01601f191660200182016040528015612cac5781602001600182028036833780820191505090505b509050600082602001820190505b600115612d3f578080600190039150507f3031323334353637383961626364656600000000000000000000000000000000600a86061a8153600a8581612d29577f4e487b7100000000000000000000000000000000000000000000000000000000600052601260045260246000fd5b0494506000851415612d3a57612d3f565b612cba565b819350505050919050565b6000808273ffffffffffffffffffffffffffffffffffffffff163b119050919050565b600080600090507a184f03e93ff9f4daa797ed6e38ed64bf6a1f0100000000000000008310612df1577a184f03e93ff9f4daa797ed6e38ed64bf6a1f0100000000000000008381612de7577f4e487b7100000000000000000000000000000000000000000000000000000000600052601260045260246000fd5b0492506040810190505b6d04ee2d6d415b85acef81000000008310612e54576d04ee2d6d415b85acef81000000008381612e4a577f4e487b7100000000000000000000000000000000000000000000000000000000600052601260045260246000fd5b0492506020810190505b662386f26fc100008310612ea957662386f26fc100008381612e9f577f4e487b7100000000000000000000000000000000000000000000000000000000600052601260045260246000fd5b0492506010810190505b6305f5e1008310612ef8576305f5e1008381612eee577f4e487b7100000000000000000000000000000000000000000000000000000000600052601260045260246000fd5b0492506008810190505b6127108310612f43576127108381612f39577f4e487b7100000000000000000000000000000000000000000000000000000000600052601260045260246000fd5b0492506004810190505b60648310612f8c5760648381612f82577f4e487b7100000000000000000000000000000000000000000000000000000000600052601260045260246000fd5b0492506002810190505b600a8310612f9b576001810190505b80915050919050565b6040518060e0016040528060008152602001600073ffffffffffffffffffffffffffffffffffffffff168152602001600073ffffffffffffffffffffffffffffffffffffffff168152602001600073ffffffffffffffffffffffffffffffffffffffff16815260200160008152602001600081526020016000151581525090565b82805461303190613ff8565b90600052602060002090601f016020900481019282613053576000855561309a565b82601f1061306c57805160ff191683800117855561309a565b8280016001018555821561309a579182015b8281111561309957825182559160200191906001019061307e565b5b5090506130a791906130ab565b5090565b5b808211156130c45760008160009055506001016130ac565b5090565b60006130db6130d684613d3d565b613d18565b9050828152602081018484840111156130f357600080fd5b6130fe848285613fb6565b509392505050565b600061311961311484613d6e565b613d18565b90508281526020810184848401111561313157600080fd5b61313c848285613fb6565b509392505050565b6000813590506131538161466a565b92915050565b60008135905061316881614681565b92915050565b60008135905061317d81614698565b92915050565b60008151905061319281614698565b92915050565b600082601f8301126131a957600080fd5b81356131b98482602086016130c8565b91505092915050565b600082601f8301126131d357600080fd5b81356131e3848260208601613106565b91505092915050565b6000813590506131fb816146af565b92915050565b60006020828403121561321357600080fd5b600061322184828501613144565b91505092915050565b6000806040838503121561323d57600080fd5b600061324b85828601613144565b925050602061325c85828601613144565b9150509250929050565b60008060006060848603121561327b57600080fd5b600061328986828701613144565b935050602061329a86828701613144565b92505060406132ab868287016131ec565b9150509250925092565b600080600080608085870312156132cb57600080fd5b60006132d987828801613144565b94505060206132ea87828801613144565b93505060406132fb878288016131ec565b925050606085013567ffffffffffffffff81111561331857600080fd5b61332487828801613198565b91505092959194509250565b6000806040838503121561334357600080fd5b600061335185828601613144565b925050602061336285828601613159565b9150509250929050565b6000806040838503121561337f57600080fd5b600061338d85828601613144565b925050602061339e858286016131ec565b9150509250929050565b6000602082840312156133ba57600080fd5b60006133c88482850161316e565b91505092915050565b6000602082840312156133e357600080fd5b60006133f184828501613183565b91505092915050565b60008060006060848603121561340f57600080fd5b600084013567ffffffffffffffff81111561342957600080fd5b613435868287016131c2565b9350506020613446868287016131ec565b9250506040613457868287016131ec565b9150509250925092565b60006020828403121561347357600080fd5b6000613481848285016131ec565b91505092915050565b6000806040838503121561349d57600080fd5b60006134ab858286016131ec565b92505060206134bc858286016131ec565b9150509250929050565b60006134d283836138b4565b60e08301905092915050565b6134e781613f42565b82525050565b6134f681613f30565b82525050565b600061350782613daf565b6135118185613ddd565b935061351c83613d9f565b8060005b8381101561354d57815161353488826134c6565b975061353f83613dd0565b925050600181019050613520565b5085935050505092915050565b61356381613f54565b82525050565b61357281613f54565b82525050565b600061358382613dba565b61358d8185613dee565b935061359d818560208601613fc5565b6135a681614160565b840191505092915050565b60006135bc82613dc5565b6135c68185613dff565b93506135d6818560208601613fc5565b6135df81614160565b840191505092915050565b60006135f582613dc5565b6135ff8185613e10565b935061360f818560208601613fc5565b80840191505092915050565b6000613628602d83613dff565b915061363382614171565b604082019050919050565b600061364b601b83613dff565b9150613656826141c0565b602082019050919050565b600061366e603283613dff565b9150613679826141e9565b604082019050919050565b6000613691602583613dff565b915061369c82614238565b604082019050919050565b60006136b4601c83613dff565b91506136bf82614287565b602082019050919050565b60006136d7602483613dff565b91506136e2826142b0565b604082019050919050565b60006136fa603483613dff565b9150613705826142ff565b604082019050919050565b600061371d601983613dff565b91506137288261434e565b602082019050919050565b6000613740602983613dff565b915061374b82614377565b604082019050919050565b6000613763602e83613dff565b915061376e826143c6565b604082019050919050565b6000613786604083613dff565b915061379182614415565b604082019050919050565b60006137a9602083613dff565b91506137b482614464565b602082019050919050565b60006137cc602a83613dff565b91506137d78261448d565b604082019050919050565b60006137ef601883613dff565b91506137fa826144dc565b602082019050919050565b6000613812602183613dff565b915061381d82614505565b604082019050919050565b6000613835602483613dff565b915061384082614554565b604082019050919050565b6000613858603d83613dff565b9150613863826145a3565b604082019050919050565b600061387b603083613dff565b9150613886826145f2565b604082019050919050565b600061389e601c83613dff565b91506138a982614641565b602082019050919050565b60e0820160008201516138ca6000850182613942565b5060208201516138dd60208501826134de565b5060408201516138f060408501826134de565b50606082015161390360608501826134de565b5060808201516139166080850182613942565b5060a082015161392960a0850182613942565b5060c082015161393c60c085018261355a565b50505050565b61394b81613fac565b82525050565b61395a81613fac565b82525050565b600061396c82856135ea565b915061397882846135ea565b91508190509392505050565b600060208201905061399960008301846134ed565b92915050565b60006080820190506139b460008301876134ed565b6139c160208301866134ed565b6139ce6040830185613951565b81810360608301526139e08184613578565b905095945050505050565b600060a082019050613a0060008301886134ed565b613a0d60208301876134ed565b613a1a6040830186613951565b613a276060830185613951565b613a346080830184613569565b9695505050505050565b60006020820190508181036000830152613a5881846134fc565b905092915050565b6000602082019050613a756000830184613569565b92915050565b60006020820190508181036000830152613a9581846135b1565b905092915050565b60006020820190508181036000830152613ab68161361b565b9050919050565b60006020820190508181036000830152613ad68161363e565b9050919050565b60006020820190508181036000830152613af681613661565b9050919050565b60006020820190508181036000830152613b1681613684565b9050919050565b60006020820190508181036000830152613b36816136a7565b9050919050565b60006020820190508181036000830152613b56816136ca565b9050919050565b60006020820190508181036000830152613b76816136ed565b9050919050565b60006020820190508181036000830152613b9681613710565b9050919050565b60006020820190508181036000830152613bb681613733565b9050919050565b60006020820190508181036000830152613bd681613756565b9050919050565b60006020820190508181036000830152613bf681613779565b9050919050565b60006020820190508181036000830152613c168161379c565b9050919050565b60006020820190508181036000830152613c36816137bf565b9050919050565b60006020820190508181036000830152613c56816137e2565b9050919050565b60006020820190508181036000830152613c7681613805565b9050919050565b60006020820190508181036000830152613c9681613828565b9050919050565b60006020820190508181036000830152613cb68161384b565b9050919050565b60006020820190508181036000830152613cd68161386e565b9050919050565b60006020820190508181036000830152613cf681613891565b9050919050565b6000602082019050613d126000830184613951565b92915050565b6000613d22613d33565b9050613d2e828261402a565b919050565b6000604051905090565b600067ffffffffffffffff821115613d5857613d57614131565b5b613d6182614160565b9050602081019050919050565b600067ffffffffffffffff821115613d8957613d88614131565b5b613d9282614160565b9050602081019050919050565b6000819050602082019050919050565b600081519050919050565b600081519050919050565b600081519050919050565b6000602082019050919050565b600082825260208201905092915050565b600082825260208201905092915050565b600082825260208201905092915050565b600081905092915050565b6000613e2682613fac565b9150613e3183613fac565b9250827fffffffffffffffffffffffffffffffffffffffffffffffffffffffffffffffff03821115613e6657613e656140a4565b5b828201905092915050565b6000613e7c82613fac565b9150613e8783613fac565b925082613e9757613e966140d3565b5b828204905092915050565b6000613ead82613fac565b9150613eb883613fac565b9250817fffffffffffffffffffffffffffffffffffffffffffffffffffffffffffffffff0483118215151615613ef157613ef06140a4565b5b828202905092915050565b6000613f0782613fac565b9150613f1283613fac565b925082821015613f2557613f246140a4565b5b828203905092915050565b6000613f3b82613f8c565b9050919050565b6000613f4d82613f8c565b9050919050565b60008115159050919050565b60007fffffffff0000000000000000000000000000000000000000000000000000000082169050919050565b600073ffffffffffffffffffffffffffffffffffffffff82169050919050565b6000819050919050565b82818337600083830152505050565b60005b83811015613fe3578082015181840152602081019050613fc8565b83811115613ff2576000848401525b50505050565b6000600282049050600182168061401057607f821691505b6020821081141561402457614023614102565b5b50919050565b61403382614160565b810181811067ffffffffffffffff8211171561405257614051614131565b5b80604052505050565b600061406682613fac565b91507fffffffffffffffffffffffffffffffffffffffffffffffffffffffffffffffff821415614099576140986140a4565b5b600182019050919050565b7f4e487b7100000000000000000000000000000000000000000000000000000000600052601160045260246000fd5b7f4e487b7100000000000000000000000000000000000000000000000000000000600052601260045260246000fd5b7f4e487b7100000000000000000000000000000000000000000000000000000000600052602260045260246000fd5b7f4e487b7100000000000000000000000000000000000000000000000000000000600052604160045260246000fd5b6000601f19601f8301169050919050565b7f4552433732313a2063616c6c6572206973206e6f7420746f6b656e206f776e6560008201527f72206f7220617070726f76656400000000000000000000000000000000000000602082015250565b7f436f756e7465723a2064656372656d656e74206f766572666c6f770000000000600082015250565b7f4552433732313a207472616e7366657220746f206e6f6e20455243373231526560008201527f63656976657220696d706c656d656e7465720000000000000000000000000000602082015250565b7f4552433732313a207472616e736665722066726f6d20696e636f72726563742060008201527f6f776e6572000000000000000000000000000000000000000000000000000000602082015250565b7f4552433732313a20746f6b656e20616c7265616479206d696e74656400000000600082015250565b7f4552433732313a207472616e7366657220746f20746865207a65726f2061646460008201527f7265737300000000000000000000000000000000000000000000000000000000602082015250565b7f526f79616c74792070657263656e74616765206d757374206265206c6573732060008201527f7468616e206f7220657175616c20746f20313030000000000000000000000000602082015250565b7f4552433732313a20617070726f766520746f2063616c6c657200000000000000600082015250565b7f4552433732313a2061646472657373207a65726f206973206e6f74206120766160008201527f6c6964206f776e65720000000000000000000000000000000000000000000000602082015250565b7f45524337323155524953746f726167653a2055524920736574206f66206e6f6e60008201527f6578697374656e7420746f6b656e000000000000000000000000000000000000602082015250565b7f506c65617365207375626d6974207468652061736b696e67207072696365206960008201527f6e206f7264657220746f20636f6d706c65746520746865207075726368617365602082015250565b7f4552433732313a206d696e7420746f20746865207a65726f2061646472657373600082015250565b7f4f6e6c79206974656d206f776e65722063616e20706572666f726d207468697360008201527f206f7065726174696f6e00000000000000000000000000000000000000000000602082015250565b7f4552433732313a20696e76616c696420746f6b656e2049440000000000000000600082015250565b7f4552433732313a20617070726f76616c20746f2063757272656e74206f776e6560008201527f7200000000000000000000000000000000000000000000000000000000000000602082015250565b7f5072696365206d75737420626520657175616c20746f206c697374696e67207060008201527f7269636500000000000000000000000000000000000000000000000000000000602082015250565b7f4552433732313a20617070726f76652063616c6c6572206973206e6f7420746f60008201527f6b656e206f776e6572206f7220617070726f76656420666f7220616c6c000000602082015250565b7f4f6e6c79206d61726b6574706c616365206f776e65722063616e20757064617460008201527f65206c697374696e672070726963652e00000000000000000000000000000000602082015250565b7f5072696365206d757374206265206174206c6561737420312077656900000000600082015250565b61467381613f30565b811461467e57600080fd5b50565b61468a81613f54565b811461469557600080fd5b50565b6146a181613f60565b81146146ac57600080fd5b50565b6146b881613fac565b81146146c357600080fd5b5056fea2646970667358221220b2ebcfde8712f29782ba94bf6bc4da764d31cfe3979f6292f81639deb510786264736f6c63430008040033",
  "linkReferences": {},
  "deployedLinkReferences": {}
}